{
  "contractName": "BeharCoin",
  "abi": [
    {
      "inputs": [
        {
          "internalType": "uint256",
          "name": "_initialSupply",
          "type": "uint256"
        },
        {
          "internalType": "uint256",
          "name": "_price",
          "type": "uint256"
        }
      ],
      "stateMutability": "nonpayable",
      "type": "constructor"
    },
    {
      "anonymous": false,
      "inputs": [
        {
          "indexed": true,
          "internalType": "address",
          "name": "owner",
          "type": "address"
        },
        {
          "indexed": true,
          "internalType": "address",
          "name": "spender",
          "type": "address"
        },
        {
          "indexed": false,
          "internalType": "uint256",
          "name": "value",
          "type": "uint256"
        }
      ],
      "name": "Approval",
      "type": "event"
    },
    {
      "anonymous": false,
      "inputs": [
        {
          "indexed": true,
          "internalType": "address",
          "name": "from",
          "type": "address"
        },
        {
          "indexed": true,
          "internalType": "address",
          "name": "to",
          "type": "address"
        },
        {
          "indexed": false,
          "internalType": "uint256",
          "name": "value",
          "type": "uint256"
        }
      ],
      "name": "Transfer",
      "type": "event"
    },
    {
      "inputs": [
        {
          "internalType": "address",
          "name": "owner",
          "type": "address"
        },
        {
          "internalType": "address",
          "name": "spender",
          "type": "address"
        }
      ],
      "name": "allowance",
      "outputs": [
        {
          "internalType": "uint256",
          "name": "",
          "type": "uint256"
        }
      ],
      "stateMutability": "view",
      "type": "function",
      "constant": true
    },
    {
      "inputs": [
        {
          "internalType": "address",
          "name": "spender",
          "type": "address"
        },
        {
          "internalType": "uint256",
          "name": "amount",
          "type": "uint256"
        }
      ],
      "name": "approve",
      "outputs": [
        {
          "internalType": "bool",
          "name": "",
          "type": "bool"
        }
      ],
      "stateMutability": "nonpayable",
      "type": "function"
    },
    {
      "inputs": [
        {
          "internalType": "address",
          "name": "account",
          "type": "address"
        }
      ],
      "name": "balanceOf",
      "outputs": [
        {
          "internalType": "uint256",
          "name": "",
          "type": "uint256"
        }
      ],
      "stateMutability": "view",
      "type": "function",
      "constant": true
    },
    {
      "inputs": [],
      "name": "decimals",
      "outputs": [
        {
          "internalType": "uint8",
          "name": "",
          "type": "uint8"
        }
      ],
      "stateMutability": "view",
      "type": "function",
      "constant": true
    },
    {
      "inputs": [
        {
          "internalType": "address",
          "name": "spender",
          "type": "address"
        },
        {
          "internalType": "uint256",
          "name": "subtractedValue",
          "type": "uint256"
        }
      ],
      "name": "decreaseAllowance",
      "outputs": [
        {
          "internalType": "bool",
          "name": "",
          "type": "bool"
        }
      ],
      "stateMutability": "nonpayable",
      "type": "function"
    },
    {
      "inputs": [],
      "name": "endTime",
      "outputs": [
        {
          "internalType": "uint256",
          "name": "",
          "type": "uint256"
        }
      ],
      "stateMutability": "view",
      "type": "function",
      "constant": true
    },
    {
      "inputs": [
        {
          "internalType": "address",
          "name": "",
          "type": "address"
        }
      ],
      "name": "ethBalances",
      "outputs": [
        {
          "internalType": "uint256",
          "name": "",
          "type": "uint256"
        }
      ],
      "stateMutability": "view",
      "type": "function",
      "constant": true
    },
    {
      "inputs": [
        {
          "internalType": "address",
          "name": "spender",
          "type": "address"
        },
        {
          "internalType": "uint256",
          "name": "addedValue",
          "type": "uint256"
        }
      ],
      "name": "increaseAllowance",
      "outputs": [
        {
          "internalType": "bool",
          "name": "",
          "type": "bool"
        }
      ],
      "stateMutability": "nonpayable",
      "type": "function"
    },
    {
      "inputs": [],
      "name": "name",
      "outputs": [
        {
          "internalType": "string",
          "name": "",
          "type": "string"
        }
      ],
      "stateMutability": "view",
      "type": "function",
      "constant": true
    },
    {
      "inputs": [],
      "name": "owner",
      "outputs": [
        {
          "internalType": "address",
          "name": "",
          "type": "address"
        }
      ],
      "stateMutability": "view",
      "type": "function",
      "constant": true
    },
    {
      "inputs": [],
      "name": "startTime",
      "outputs": [
        {
          "internalType": "uint256",
          "name": "",
          "type": "uint256"
        }
      ],
      "stateMutability": "view",
      "type": "function",
      "constant": true
    },
    {
      "inputs": [],
      "name": "symbol",
      "outputs": [
        {
          "internalType": "string",
          "name": "",
          "type": "string"
        }
      ],
      "stateMutability": "view",
      "type": "function",
      "constant": true
    },
    {
      "inputs": [],
      "name": "tokenPrice",
      "outputs": [
        {
          "internalType": "uint256",
          "name": "",
          "type": "uint256"
        }
      ],
      "stateMutability": "view",
      "type": "function",
      "constant": true
    },
    {
      "inputs": [],
      "name": "totalSupply",
      "outputs": [
        {
          "internalType": "uint256",
          "name": "",
          "type": "uint256"
        }
      ],
      "stateMutability": "view",
      "type": "function",
      "constant": true
    },
    {
      "inputs": [
        {
          "internalType": "address",
          "name": "to",
          "type": "address"
        },
        {
          "internalType": "uint256",
          "name": "amount",
          "type": "uint256"
        }
      ],
      "name": "transfer",
      "outputs": [
        {
          "internalType": "bool",
          "name": "",
          "type": "bool"
        }
      ],
      "stateMutability": "nonpayable",
      "type": "function"
    },
    {
      "inputs": [
        {
          "internalType": "address",
          "name": "from",
          "type": "address"
        },
        {
          "internalType": "address",
          "name": "to",
          "type": "address"
        },
        {
          "internalType": "uint256",
          "name": "amount",
          "type": "uint256"
        }
      ],
      "name": "transferFrom",
      "outputs": [
        {
          "internalType": "bool",
          "name": "",
          "type": "bool"
        }
      ],
      "stateMutability": "nonpayable",
      "type": "function"
    },
    {
      "stateMutability": "payable",
      "type": "receive",
      "payable": true
    },
    {
      "inputs": [
        {
          "internalType": "uint256",
          "name": "_price",
          "type": "uint256"
        }
      ],
      "name": "setTokenPrice",
      "outputs": [],
      "stateMutability": "nonpayable",
      "type": "function"
    },
    {
      "inputs": [],
      "name": "buyTokens",
      "outputs": [],
      "stateMutability": "payable",
      "type": "function",
      "payable": true
    },
    {
      "inputs": [],
      "name": "claimTokens",
      "outputs": [],
      "stateMutability": "nonpayable",
      "type": "function"
    }
  ],
  "bytecode": "0x60806040523480156200001157600080fd5b506040516200141f3803806200141f833981016040819052620000349162000281565b604051806040016040528060098152602001682132b430b931b7b4b760b91b8152506040518060400160405280600381526020016244424160e81b81525081600390805190602001906200008a929190620001db565b508051620000a0906004906020840190620001db565b5050600580546001600160a01b03191633908117909155620000e99150620000c76200010f565b620000d79060ff1660126200034d565b620000e3908562000442565b62000114565b6006819055426007819055620001039062093a80620002e5565b60085550620004b79050565b601290565b6001600160a01b038216620001465760405162461bcd60e51b81526004016200013d90620002a5565b60405180910390fd5b6200015460008383620001d6565b8060026000828254620001689190620002e5565b90915550506001600160a01b038216600081815260208190526040808220805485019055517fddf252ad1be2c89b69c2b068fc378daa952ba7f163c4a11628f55a4df523b3ef90620001bc908590620002dc565b60405180910390a3620001d260008383620001d6565b5050565b505050565b828054620001e99062000464565b90600052602060002090601f0160209004810192826200020d576000855562000258565b82601f106200022857805160ff191683800117855562000258565b8280016001018555821562000258579182015b82811115620002585782518255916020019190600101906200023b565b50620002669291506200026a565b5090565b5b808211156200026657600081556001016200026b565b6000806040838503121562000294578182fd5b505080516020909101519092909150565b6020808252601f908201527f45524332303a206d696e7420746f20746865207a65726f206164647265737300604082015260600190565b90815260200190565b60008219821115620002fb57620002fb620004a1565b500190565b80825b600180861162000314575062000344565b818704821115620003295762000329620004a1565b808616156200033757918102915b9490941c93800262000303565b94509492505050565b60006200035e600019848462000365565b9392505050565b60008262000376575060016200035e565b8162000385575060006200035e565b81600181146200039e5760028114620003a957620003dd565b60019150506200035e565b60ff841115620003bd57620003bd620004a1565b6001841b915084821115620003d657620003d6620004a1565b506200035e565b5060208310610133831016604e8410600b841016171562000415575081810a838111156200040f576200040f620004a1565b6200035e565b62000424848484600162000300565b808604821115620004395762000439620004a1565b02949350505050565b60008160001904831182151516156200045f576200045f620004a1565b500290565b6002810460018216806200047957607f821691505b602082108114156200049b57634e487b7160e01b600052602260045260246000fd5b50919050565b634e487b7160e01b600052601160045260246000fd5b610f5880620004c76000396000f3fe6080604052600436106101185760003560e01c80636a61e5fc116100a057806395d89b411161006457806395d89b41146102de578063a457c2d7146102f3578063a9059cbb14610313578063d0febe4c14610333578063dd62ed3e1461033b57610127565b80636a61e5fc1461025257806370a082311461027257806378e97925146102925780637ff9b596146102a75780638da5cb5b146102bc57610127565b8063313ce567116100e7578063313ce567146101c65780633197cbb6146101e857806339509351146101fd5780633cfba0e31461021d57806348c54b9d1461023d57610127565b806306fdde031461012c578063095ea7b31461015757806318160ddd1461018457806323b872dd146101a657610127565b366101275761012561035b565b005b600080fd5b34801561013857600080fd5b50610141610415565b60405161014e9190610a45565b60405180910390f35b34801561016357600080fd5b506101776101723660046109e5565b6104a7565b60405161014e9190610a3a565b34801561019057600080fd5b506101996104c9565b60405161014e9190610d6f565b3480156101b257600080fd5b506101776101c13660046109aa565b6104cf565b3480156101d257600080fd5b506101db6104ff565b60405161014e9190610d78565b3480156101f457600080fd5b50610199610504565b34801561020957600080fd5b506101776102183660046109e5565b61050a565b34801561022957600080fd5b5061019961023836600461095e565b610536565b34801561024957600080fd5b50610125610548565b34801561025e57600080fd5b5061012561026d366004610a0e565b61058b565b34801561027e57600080fd5b5061019961028d36600461095e565b6105ba565b34801561029e57600080fd5b506101996105d9565b3480156102b357600080fd5b506101996105df565b3480156102c857600080fd5b506102d16105e5565b60405161014e9190610a26565b3480156102ea57600080fd5b506101416105f4565b3480156102ff57600080fd5b5061017761030e3660046109e5565b610603565b34801561031f57600080fd5b5061017761032e3660046109e5565b610656565b61012561035b565b34801561034757600080fd5b50610199610356366004610978565b61066e565b600754421015801561036f57506008544211155b6103945760405162461bcd60e51b815260040161038b90610b8f565b60405180910390fd5b606460006103a28234610eb2565b9050600081116103c45760405162461bcd60e51b815260040161038b90610c78565b6103ed336103d06104ff565b6103de9060ff16600a610de4565b6103e89084610eb2565b610699565b336000908152600960205260408120805434929061040c908490610d86565b90915550505050565b60606003805461042490610ed1565b80601f016020809104026020016040519081016040528092919081815260200182805461045090610ed1565b801561049d5780601f106104725761010080835404028352916020019161049d565b820191906000526020600020905b81548152906001019060200180831161048057829003601f168201915b5050505050905090565b6000806104b2610743565b90506104bf818585610747565b5060019392505050565b60025490565b6000806104da610743565b90506104e78582856107fb565b6104f2858585610845565b60019150505b9392505050565b601290565b60085481565b600080610515610743565b90506104bf818585610527858961066e565b6105319190610d86565b610747565b60096020526000908152604090205481565b6000610553336105ba565b116105705760405162461bcd60e51b815260040161038b90610adb565b600061057b336105ba565b90506105873382610656565b5050565b6005546001600160a01b031633146105b55760405162461bcd60e51b815260040161038b90610b49565b600655565b6001600160a01b0381166000908152602081905260409020545b919050565b60075481565b60065481565b6005546001600160a01b031681565b60606004805461042490610ed1565b60008061060e610743565b9050600061061c828661066e565b90508381101561063e5760405162461bcd60e51b815260040161038b90610cf3565b61064b8286868403610747565b506001949350505050565b600080610661610743565b90506104bf818585610845565b6001600160a01b03918216600090815260016020908152604080832093909416825291909152205490565b6001600160a01b0382166106bf5760405162461bcd60e51b815260040161038b90610d38565b6106cb60008383610942565b80600260008282546106dd9190610d86565b90915550506001600160a01b038216600081815260208190526040808220805485019055517fddf252ad1be2c89b69c2b068fc378daa952ba7f163c4a11628f55a4df523b3ef9061072f908590610d6f565b60405180910390a361058760008383610942565b3390565b6001600160a01b03831661076d5760405162461bcd60e51b815260040161038b90610caf565b6001600160a01b0382166107935760405162461bcd60e51b815260040161038b90610b07565b6001600160a01b0380841660008181526001602090815260408083209487168084529490915290819020849055517f8c5be1e5ebec7d5bd14f71427d1e84f3dd0314c0f7b2291e5b200ac8c7c3b925906107ee908590610d6f565b60405180910390a3505050565b6000610807848461066e565b9050600019811461083f57818110156108325760405162461bcd60e51b815260040161038b90610bb6565b61083f8484848403610747565b50505050565b6001600160a01b03831661086b5760405162461bcd60e51b815260040161038b90610c33565b6001600160a01b0382166108915760405162461bcd60e51b815260040161038b90610a98565b61089c838383610942565b6001600160a01b038316600090815260208190526040902054818110156108d55760405162461bcd60e51b815260040161038b90610bed565b6001600160a01b0380851660008181526020819052604080822086860390559286168082529083902080548601905591517fddf252ad1be2c89b69c2b068fc378daa952ba7f163c4a11628f55a4df523b3ef90610933908690610d6f565b60405180910390a361083f8484845b505050565b80356001600160a01b03811681146105d457600080fd5b60006020828403121561096f578081fd5b6104f882610947565b6000806040838503121561098a578081fd5b61099383610947565b91506109a160208401610947565b90509250929050565b6000806000606084860312156109be578081fd5b6109c784610947565b92506109d560208501610947565b9150604084013590509250925092565b600080604083850312156109f7578182fd5b610a0083610947565b946020939093013593505050565b600060208284031215610a1f578081fd5b5035919050565b6001600160a01b0391909116815260200190565b901515815260200190565b6000602080835283518082850152825b81811015610a7157858101830151858201604001528201610a55565b81811115610a825783604083870101525b50601f01601f1916929092016040019392505050565b60208082526023908201527f45524332303a207472616e7366657220746f20746865207a65726f206164647260408201526265737360e81b606082015260800190565b6020808252601290820152714e6f20746f6b656e7320746f20636c61696d60701b604082015260600190565b60208082526022908201527f45524332303a20617070726f766520746f20746865207a65726f206164647265604082015261737360f01b606082015260800190565b60208082526026908201527f4f6e6c7920746865206f776e65722063616e20706572666f726d20746869732060408201526530b1ba34b7b760d11b606082015260800190565b6020808252600d908201526c1250d3c81a185cc8195b991959609a1b604082015260600190565b6020808252601d908201527f45524332303a20696e73756666696369656e7420616c6c6f77616e6365000000604082015260600190565b60208082526026908201527f45524332303a207472616e7366657220616d6f756e7420657863656564732062604082015265616c616e636560d01b606082015260800190565b60208082526025908201527f45524332303a207472616e736665722066726f6d20746865207a65726f206164604082015264647265737360d81b606082015260800190565b6020808252601b908201527f4e6f7420656e6f756768205365706f6c69612d4554482073656e740000000000604082015260600190565b60208082526024908201527f45524332303a20617070726f76652066726f6d20746865207a65726f206164646040820152637265737360e01b606082015260800190565b60208082526025908201527f45524332303a2064656372656173656420616c6c6f77616e63652062656c6f77604082015264207a65726f60d81b606082015260800190565b6020808252601f908201527f45524332303a206d696e7420746f20746865207a65726f206164647265737300604082015260600190565b90815260200190565b60ff91909116815260200190565b60008219821115610d9957610d99610f0c565b500190565b80825b6001808611610db05750610ddb565b818704821115610dc257610dc2610f0c565b80861615610dcf57918102915b9490941c938002610da1565b94509492505050565b60006104f86000198484600082610dfd575060016104f8565b81610e0a575060006104f8565b8160018114610e205760028114610e2a57610e57565b60019150506104f8565b60ff841115610e3b57610e3b610f0c565b6001841b915084821115610e5157610e51610f0c565b506104f8565b5060208310610133831016604e8410600b8410161715610e8a575081810a83811115610e8557610e85610f0c565b6104f8565b610e978484846001610d9e565b808604821115610ea957610ea9610f0c565b02949350505050565b6000816000190483118215151615610ecc57610ecc610f0c565b500290565b600281046001821680610ee557607f821691505b60208210811415610f0657634e487b7160e01b600052602260045260246000fd5b50919050565b634e487b7160e01b600052601160045260246000fdfea26469706673582212200058f4ae641c09d2ec45efb6950b9228da0087e15f3cf7b495c320e43d9a3ade64736f6c63430008000033",
  "immutableReferences": {},
  "source": "// SPDX-License-Identifier: MIT\npragma solidity ^0.8.0;\n\nimport \"@openzeppelin/contracts/token/ERC20/ERC20.sol\";\n\ncontract BeharCoin is ERC20 {\n    address public owner;\n    uint256 public tokenPrice;\n    uint256 public startTime;\n    uint256 public endTime;\n    mapping(address => uint256) public ethBalances;\n\n    constructor(uint256 _initialSupply, uint256 _price ) ERC20(\"Beharcoin\", \"DBA\") {\n        owner = msg.sender;\n        _mint(msg.sender, _initialSupply * 18**uint256(decimals()));\n        tokenPrice = _price;\n        startTime = block.timestamp;\n        endTime = startTime + 7 days;\n    }\n\n    modifier onlyOwner() {\n        require(msg.sender == owner, \"Only the owner can perform this action\");\n        _;\n    }\n\n    modifier duringICO() {\n        require(block.timestamp >= startTime && block.timestamp <= endTime, \"ICO has ended\");\n        _;\n    }\n\n    function setTokenPrice(uint256 _price) public onlyOwner {\n        tokenPrice = _price;\n    }\n\n    function buyTokens() public payable duringICO {\n        uint256 tokensPerEth = 100; // 1.0 Sepolia-ETH = 100 Beharcoins\n        uint256 tokenAmount = msg.value * tokensPerEth;\n        require(tokenAmount > 0, \"Not enough Sepolia-ETH sent\");\n        _mint(msg.sender, tokenAmount * 10**uint256(decimals())); // Mint tokens\n        ethBalances[msg.sender] += msg.value;\n    }\n\n    function claimTokens() public {\n        require(balanceOf(msg.sender) > 0, \"No tokens to claim\");\n        uint256 tokensToClaim = balanceOf(msg.sender);\n        transfer(msg.sender, tokensToClaim);\n    }\n\n\n    receive() external payable {\n        buyTokens(); // Fallback function to buy tokens when Sepolia-ETH is sent\n    }\n}\n\n\n\n",
  "sourcePath": "C:\\Users\\danie\\Desktop\\Repositorios\\truffleProject\\contract\\contracts\\BeharCoin.sol",
  "compiler": {
    "name": "solc",
    "version": "0.8.0+commit.c7dfd78e.Emscripten.clang"
  },
  "schemaVersion": "3.4.16",
  "updatedAt": "2023-09-22T22:22:26.552Z",
  "networkType": "ethereum",
  "devdoc": {
    "kind": "dev",
    "methods": {
      "allowance(address,address)": {
        "details": "See {IERC20-allowance}."
      },
      "approve(address,uint256)": {
        "details": "See {IERC20-approve}. NOTE: If `amount` is the maximum `uint256`, the allowance is not updated on `transferFrom`. This is semantically equivalent to an infinite approval. Requirements: - `spender` cannot be the zero address."
      },
      "balanceOf(address)": {
        "details": "See {IERC20-balanceOf}."
      },
      "decimals()": {
        "details": "Returns the number of decimals used to get its user representation. For example, if `decimals` equals `2`, a balance of `505` tokens should be displayed to a user as `5.05` (`505 / 10 ** 2`). Tokens usually opt for a value of 18, imitating the relationship between Ether and Wei. This is the default value returned by this function, unless it's overridden. NOTE: This information is only used for _display_ purposes: it in no way affects any of the arithmetic of the contract, including {IERC20-balanceOf} and {IERC20-transfer}."
      },
      "decreaseAllowance(address,uint256)": {
        "details": "Atomically decreases the allowance granted to `spender` by the caller. This is an alternative to {approve} that can be used as a mitigation for problems described in {IERC20-approve}. Emits an {Approval} event indicating the updated allowance. Requirements: - `spender` cannot be the zero address. - `spender` must have allowance for the caller of at least `subtractedValue`."
      },
      "increaseAllowance(address,uint256)": {
        "details": "Atomically increases the allowance granted to `spender` by the caller. This is an alternative to {approve} that can be used as a mitigation for problems described in {IERC20-approve}. Emits an {Approval} event indicating the updated allowance. Requirements: - `spender` cannot be the zero address."
      },
      "name()": {
        "details": "Returns the name of the token."
      },
      "symbol()": {
        "details": "Returns the symbol of the token, usually a shorter version of the name."
      },
      "totalSupply()": {
        "details": "See {IERC20-totalSupply}."
      },
      "transfer(address,uint256)": {
        "details": "See {IERC20-transfer}. Requirements: - `to` cannot be the zero address. - the caller must have a balance of at least `amount`."
      },
      "transferFrom(address,address,uint256)": {
        "details": "See {IERC20-transferFrom}. Emits an {Approval} event indicating the updated allowance. This is not required by the EIP. See the note at the beginning of {ERC20}. NOTE: Does not update the allowance if the current allowance is the maximum `uint256`. Requirements: - `from` and `to` cannot be the zero address. - `from` must have a balance of at least `amount`. - the caller must have allowance for ``from``'s tokens of at least `amount`."
      }
    },
    "version": 1
  },
  "userdoc": {
    "kind": "user",
    "methods": {},
    "version": 1
  }
}